:020000020000FC
:1000000033C011C010C00FC00EC00DC00CC00BC05B
:100010000AC009C008C007C006C005C004C003C0AC
:1000200002C001C000C006B707FFFDCF08950895C4
:1000300004EA06BFF8DF01B1087F0830C1F703E129
:1000400003B904E806BFEFDF01B1087F083179F793
:1000500001E103B904E806BFE6DF01B1087F083219
:1000600031F704E906BF08950FE50DBF04E00EBFA8
:10007000002700B903E001B9DBDF0FEF0A95F1F7C4
:0A008000D7DF0FEF0A95F1F7F7CF75
:00000001FF
