:020000020000FC
:1000000038C011C010C00FC00EC00DC00CC00BC056
:100010000AC009C008C007C006C005C004C003C0AC
:1000200002C001C000C006B707FFFDCF08950895C4
:1000300004EA06BFF8DF01B1087F0830C1F7089570
:1000400003B904E806BFEFDF01B1087F083179F793
:10005000089503B904E806BFE6DF01B1087F08325E
:1000600031F7089504E906BF089500E006BF08953A
:1000700008950FE50DBF04E00EBF002700B903E0AF
:1000800001B9F6DF0FEF0A95F1F7F2DF0FEF0A95EE
:04009000F1F7F7CFBE
:00000001FF
